:1000000065C004C27EC07DC07CC07BC07AC079C0A0
:1000100078C077C076C075C074C073C072C071C03C
:1000200070C06FC06EC018035500530042004100FD
:10003000530050002D004D004900440049001203B8
:100040006F0062006400650076002E00610074009D
:10005000040309040902650002010080320904005A
:10006000000001010000092401000109000101094B
:100070000401000201030000072401000141000601
:1000800024020101000624020202000924030103E4
:100090000102010009240302040101010009050114
:1000A0000308000A00000525010101090581030874
:1000B000000A0000052501010312011001000000E3
:1000C00008C016E8030001010200010011241FBE50
:1000D000CFE5D4E0DEBFCDBF10E0A0E6B0E0E8EBB6
:1000E000F8E002C005900D92A237B107D9F720E0E1
:1000F000A2E7B0E001C01D92AF3DB207E1F78ED399
:10010000D9C37ECFCF932091B4002E3101F120913D
:10011000B40024FF07C03091B50028E823272093BE
:10012000B50003C02AE52093B400DC01E6EBF0E063
:10013000962F9E0F8D918193892F8E1B1816D4F3C5
:10014000C62F86EB90E05ED1CC5FC093B400CF9118
:100150000895CF93DF936091C500635067FDCDC0D4
:100160008091C200CCE0D0E0C81BD109C753DF4F5B
:100170008091C100803118F4CE01F3D2BCC08D3221
:1001800009F0AAC0683009F0B6C083EC8093A900DA
:100190008AE580936100109272002881822F807618
:1001A00021F0CE0184D2982F84C09A813C81109294
:1001B000B2008981811113C02F71223051F431387E
:1001C00041F49091B40081E09E3109F080E0809389
:1001D000B2001092B30022EB30E092E065C0282F0D
:1001E0002D7F213081F491115CC0313809F059C064
:1001F000813011F08EE101C08AE58093B4008BE478
:100200008093B5004EC0853019F49093C60049C064
:10021000863071F58B81813011F0823021F4CE016E
:1002200032D2982F21C08330F1F4911108C080E5BB
:1002300090E09093C4008093C30094E015C0913087
:1002400041F48EE390E09093C4008093C30092E168
:100250000BC0923041F486E290E09093C40080930A
:10026000C30098E101C090E080E48093720021C057
:10027000883081F0893019F49093C80007C08A3023
:1002800061F08B3071F48BE48093B5008AE5809344
:10029000B40007C028EC30E002C022EB30E091E06F
:1002A00003C022EB30E090E03093C4002093C30001
:1002B00009C09F3F39F4888187FD9E8180E8809343
:1002C000720007C08F81811104C08E81891708F4E4
:1002D000982F909360000FC08091720087FF0BC031
:1002E000CE01FCD18F3F21F48EE18093610003C0E9
:1002F0008111109260001092C5008091610084FF0E
:100300004FC0809160008F3F09F44AC0C82F8930E8
:1003100008F0C8E08C1B809360009091A90088E8E9
:1003200089278093A900CC2351F13091720037FFC7
:1003300008C06C2F8AEA90E0C7D1C82F893050F5E9
:100340001EC08091C3009091C4002C2F280FAAEAF0
:10035000B0E0FC0136FF06C034913D9331962E1378
:10036000FBCF04C031913D932E13FCCF01962FEFAC
:100370002C0F820F911D9093C4008093C3006C2FAB
:100380008AEA90E03FD0CC5FCC3041F08FEF809391
:10039000600004C08FEF80936000CEE1C0936100E5
:1003A00084E196B3937049F48150D9F71092C60056
:1003B0001092C0008AE58093B400DF91CF91089538
:1003C00085B7826085BF8BB780648BBFE4EBF0E0BC
:1003D0008BE481838AE580830895A82FB92F80E07C
:1003E00090E041E050EA609530E009C02D9182270D
:1003F0009795879510F084279527305EC8F36F5F37
:10040000A8F30895EADF8D939D930895CF93CFB716
:10041000CF93C395B09BE9F7B09B09C0B09B07C0D1
:10042000B09B05C0B09B03C0B09B01C0A6C0DF93CA
:10043000C091C200DD27C753DF4FB09B02C0DF91E0
:10044000EBCF2F930F931F9306B32FEF00FB20F9F1
:100450004F933F9316B34FEF012700FB21F93BE089
:1004600031C04E7F012F16B3216028C0102F4D7F61
:100470002260000006B329C04B7F2460012F0000DA
:1004800016B32BC016B3477F28602AC04F7E06B331
:1004900020612CC04F7D16B320622FC04F7B06B366
:1004A000206432C0422706B349934FEF0000102763
:1004B00010FB20F916B31370C9F1297F91F20127BF
:1004C00000FB21F906B3237F89F2315058F1102740
:1004D00010FB22F916B3277E79F2012700FB23F9DE
:1004E0002F7C81F206B3102710FB24F92F7971F2CB
:1004F00000C016B3012700FB25F92F7359F200C085
:1005000006B3102710FB26F9223040F200C016B3C4
:10051000012700FB27F9243028F64F77206816B30F
:100520000000F9CF10E41ABF00271CC03B503195E2
:10053000C31BD04010E41ABF0881033C11F10B34F7
:1005400001F12091C0001981110F1213EDCF4A81E2
:10055000441F093659F10D3211F0013E29F74F7051
:1005600009F0042F0093C7003F914F911F910F9105
:100570002F91DF91CAB7C6FD4CCFCF91CFBFCF919E
:1005800018952091C700222379F31091C5001123FB
:1005900069F534306AF13093C5002093C1001091A1
:1005A000C2003BE0311B3093C20022C00091C50065
:1005B0000130E4F40AE54F7049F43091610034FDF4
:1005C00019C000936100C9EAD0E018C03091B400AE
:1005D00034FD10C00093B400C5EBD0E00FC02795E8
:1005E000A8F45150A9F4220F0000F9CF4AE503C046
:1005F00042ED01C0432FC4E1D0E032E017B31360F5
:10060000C09A17BB08B320E413E05F93012756E0BC
:1006100008BB279520F4515021F4220FF9CF012770
:1006200056E000003B5A08BBD0F2279528F4515001
:1006300029F4220F0000F9CF012756E0279508BBC7
:1006400020F4515021F4220FF9CF012756E02991CF
:10065000332308BB21F60C7F1091C600110FC65141
:10066000D04008BB11F01093C00010E41ABF016025
:1006700017B31C7F402F4C7F5F9100C000C008BBA8
:1006800017BB48BB71CFFC018381813041F489EBFA
:1006900090E09093C4008093C30082E1089584E5C4
:1006A00090E09093C4008093C30085E60895FC0118
:1006B0008081982F9076903229F487FD03C081E0E5
:1006C0008093A8008FEF0895FC011082118212829E
:1006D000138214821582168287E00895A89A81E019
:1006E0000895CF93DF93FC01860F4081242F2F7054
:1006F000283029F0293039F493819F7711F4A89894
:100700000AC0A89A08C0223030F4982F9E1B95305A
:1007100028F13496EACF90919600EF01219631E0CE
:100720004B7054EF520F6991A92FB0E0AB58BF4FF7
:100730006C939F5F9F71313029F4253061F02F3029
:1007400039F409C0323021F4423029F0523018F027
:100750003F5F343041F790939600D7CFDF91CF9130
:100760000895BFCF982F85B341E0842785BB809142
:100770007400882331F0973F11F41092740080E0E8
:100780000895983F50F08FE08093970090939800E1
:100790001092990010929A003FC097FF07C0903FB7
:1007A00019F44093740008951092730080917300BF
:1007B000811110C0392F32953F70232F2770220FDF
:1007C0002E5F2093730030939F009093A0001092AF
:1007D000A2000895E82FF0E0EE59FF4F4081282F46
:1007E000217030E0F901E156FF4F9283842F8F7022
:1007F0008093730047FFC3CF80919F009091A0002A
:10080000A091A100B091A2008093970090939800CE
:10081000A0939900B0939A0081E0089588E19EE04A
:100820000FB6F894A89581BD0FBE91BD9CEF98BB03
:1008300010BC97E199B98AB981E084BB82E081BBA1
:100840008FE295E70197F1F700C00000B9DD109243
:10085000A8007894A8957DDC5D9B14C0E09195007C
:10086000809196008E1771F081E08E0F8093950035
:10087000F0E0EB58FF4F80818CB9809195008F712B
:10088000809395005F9B07C08CB16CDF9091A700AF
:10089000892B8093A7008091B40084FFDBCF8091E7
:1008A000A7008823B9F264E087E990E02BDC10927E
:0808B000A700D0CFF894FFCFA0
:1008B800FF5A000003820584078609888A008C0095
:0208C8000F8E91
:00000001FF
